{
  "contractName": "WordleContract",
  "abi": [
    {
      "inputs": [
        {
          "internalType": "address",
          "name": "_user",
          "type": "address"
        }
      ],
      "stateMutability": "nonpayable",
      "type": "constructor"
    },
    {
      "anonymous": false,
      "inputs": [
        {
          "indexed": false,
          "internalType": "string",
          "name": "_word",
          "type": "string"
        }
      ],
      "name": "send_word",
      "type": "event"
    },
    {
      "inputs": [],
      "name": "assign",
      "outputs": [],
      "stateMutability": "nonpayable",
      "type": "function"
    },
    {
      "inputs": [
        {
          "internalType": "string",
          "name": "_word",
          "type": "string"
        }
      ],
      "name": "is_valid_word",
      "outputs": [
        {
          "internalType": "bool",
          "name": "",
          "type": "bool"
        }
      ],
      "stateMutability": "view",
      "type": "function"
    },
    {
      "inputs": [
        {
          "internalType": "bytes1",
          "name": "_letter",
          "type": "bytes1"
        },
        {
          "internalType": "bytes",
          "name": "_word",
          "type": "bytes"
        }
      ],
      "name": "is_letter_in_word",
      "outputs": [
        {
          "internalType": "bool",
          "name": "",
          "type": "bool"
        }
      ],
      "stateMutability": "pure",
      "type": "function"
    },
    {
      "inputs": [
        {
          "internalType": "string",
          "name": "_word",
          "type": "string"
        }
      ],
      "name": "check_positions",
      "outputs": [
        {
          "internalType": "string",
          "name": "",
          "type": "string"
        }
      ],
      "stateMutability": "nonpayable",
      "type": "function"
    },
    {
      "inputs": [
        {
          "internalType": "string",
          "name": "_word",
          "type": "string"
        }
      ],
      "name": "attempts",
      "outputs": [
        {
          "internalType": "string",
          "name": "",
          "type": "string"
        }
      ],
      "stateMutability": "nonpayable",
      "type": "function"
    }
  ],
  "bytecode": "0x60806040526040518060a001604052806040518060400160405280600581526020017f726f75746500000000000000000000000000000000000000000000000000000081525081526020016040518060400160405280600581526020017f737461697200000000000000000000000000000000000000000000000000000081525081526020016040518060400160405280600581526020017f656967687400000000000000000000000000000000000000000000000000000081525081526020016040518060400160405280600581526020017f626f6e657200000000000000000000000000000000000000000000000000000081525081526020016040518060400160405280600581526020017f736576656e0000000000000000000000000000000000000000000000000000008152508152506001906005620001469291906200030f565b506040518060a001604052806040518060400160405280600581526020017f726f75746500000000000000000000000000000000000000000000000000000081525081526020016040518060400160405280600581526020017f737461697200000000000000000000000000000000000000000000000000000081525081526020016040518060400160405280600581526020017f656967687400000000000000000000000000000000000000000000000000000081525081526020016040518060400160405280600581526020017f626f6e657200000000000000000000000000000000000000000000000000000081525081526020016040518060400160405280600581526020017f736576656e0000000000000000000000000000000000000000000000000000008152508152506002906005620002899291906200030f565b5060006003556001600455348015620002a157600080fd5b5060405162001674380380620016748339818101604052810190620002c79190620004fe565b80600560006101000a81548173ffffffffffffffffffffffffffffffffffffffff021916908373ffffffffffffffffffffffffffffffffffffffff1602179055505062000595565b82805482825590600052602060002090810192821562000363579160200282015b82811115620003625782518290805190602001906200035192919062000376565b509160200191906001019062000330565b5b50905062000372919062000407565b5090565b82805462000384906200055f565b90600052602060002090601f016020900481019282620003a85760008555620003f4565b82601f10620003c357805160ff1916838001178555620003f4565b82800160010185558215620003f4579182015b82811115620003f3578251825591602001919060010190620003d6565b5b5090506200040391906200042f565b5090565b5b808211156200042b57600081816200042191906200044e565b5060010162000408565b5090565b5b808211156200044a57600081600090555060010162000430565b5090565b5080546200045c906200055f565b6000825580601f1062000470575062000491565b601f0160209004906000526020600020908101906200049091906200042f565b5b50565b600080fd5b600073ffffffffffffffffffffffffffffffffffffffff82169050919050565b6000620004c68262000499565b9050919050565b620004d881620004b9565b8114620004e457600080fd5b50565b600081519050620004f881620004cd565b92915050565b60006020828403121562000517576200051662000494565b5b60006200052784828501620004e7565b91505092915050565b7f4e487b7100000000000000000000000000000000000000000000000000000000600052602260045260246000fd5b600060028204905060018216806200057857607f821691505b602082108114156200058f576200058e62000530565b5b50919050565b6110cf80620005a56000396000f3fe608060405234801561001057600080fd5b50600436106100575760003560e01c80630a1e11b11461005c57806312ae63971461008c5780634572fc90146100965780634ce3ca16146100c657806384a5bb0e146100f6575b600080fd5b61007660048036038101906100719190610c89565b610126565b6040516100839190610d00565b60405180910390f35b6100946101c9565b005b6100b060048036038101906100ab9190610dbc565b6102ad565b6040516100bd9190610d00565b60405180910390f35b6100e060048036038101906100db9190610dbc565b61044f565b6040516100ed9190610e8d565b60405180910390f35b610110600480360381019061010b9190610dbc565b610858565b60405161011d9190610e8d565b60405180910390f35b600080600090505b60058110156101bd57837effffffffffffffffffffffffffffffffffffffffffffffffffffffffffffff191683828151811061016d5761016c610eaf565b5b602001015160f81c60f81b7effffffffffffffffffffffffffffffffffffffffffffffffffffffffffffff191614156101aa5760019150506101c3565b80806101b590610f17565b91505061012e565b50600090505b92915050565b600560009054906101000a900473ffffffffffffffffffffffffffffffffffffffff1673ffffffffffffffffffffffffffffffffffffffff163373ffffffffffffffffffffffffffffffffffffffff1614610259576040517f08c379a000000000000000000000000000000000000000000000000000000000815260040161025090610fac565b60405180910390fd5b60016003548154811061026f5761026e610eaf565b5b90600052602060002001600090805461028790610ffb565b610292929190610a2d565b50600360008154809291906102a690610f17565b9190505550565b600080600090505b6005811015610444576000600190506000600283815481106102da576102d9610eaf565b5b9060005260206000200180546102ef90610ffb565b80601f016020809104026020016040519081016040528092919081815260200182805461031b90610ffb565b80156103685780601f1061033d57610100808354040283529160200191610368565b820191906000526020600020905b81548152906001019060200180831161034b57829003601f168201915b5050505050905060005b600581101561041c5785848151811061038e5761038d610eaf565b5b602001015160f81c60f81b7effffffffffffffffffffffffffffffffffffffffffffffffffffffffffffff19168285815181106103ce576103cd610eaf565b5b602001015160f81c60f81b7effffffffffffffffffffffffffffffffffffffffffffffffffffffffffffff191614610409576000925061041c565b808061041490610f17565b915050610372565b50811561042f576001935050505061044a565b5050808061043c90610f17565b9150506102b5565b50600090505b919050565b60606001151561045e836102ad565b1515146104a0576040517f08c379a000000000000000000000000000000000000000000000000000000000815260040161049790611079565b60405180910390fd5b6000600567ffffffffffffffff8111156104bd576104bc610b5e565b5b6040519080825280601f01601f1916602001820160405280156104ef5781602001600182028036833780820191505090505b509050600080805461050090610ffb565b80601f016020809104026020016040519081016040528092919081815260200182805461052c90610ffb565b80156105795780601f1061054e57610100808354040283529160200191610579565b820191906000526020600020905b81548152906001019060200180831161055c57829003601f168201915b50505050509050600084905060005b6005811015610815578181815181106105a4576105a3610eaf565b5b602001015160f81c60f81b7effffffffffffffffffffffffffffffffffffffffffffffffffffffffffffff19168382815181106105e4576105e3610eaf565b5b602001015160f81c60f81b7effffffffffffffffffffffffffffffffffffffffffffffffffffffffffffff1916141561067f577f310000000000000000000000000000000000000000000000000000000000000084828151811061064b5761064a610eaf565b5b60200101907effffffffffffffffffffffffffffffffffffffffffffffffffffffffffffff1916908160001a905350610802565b81818151811061069257610691610eaf565b5b602001015160f81c60f81b7effffffffffffffffffffffffffffffffffffffffffffffffffffffffffffff19168382815181106106d2576106d1610eaf565b5b602001015160f81c60f81b7effffffffffffffffffffffffffffffffffffffffffffffffffffffffffffff191614158015610730575061072f82828151811061071e5761071d610eaf565b5b602001015160f81c60f81b84610126565b5b1561079d577f320000000000000000000000000000000000000000000000000000000000000084828151811061076957610768610eaf565b5b60200101907effffffffffffffffffffffffffffffffffffffffffffffffffffffffffffff1916908160001a905350610801565b7f30000000000000000000000000000000000000000000000000000000000000008482815181106107d1576107d0610eaf565b5b60200101907effffffffffffffffffffffffffffffffffffffffffffffffffffffffffffff1916908160001a9053505b5b808061080d90610f17565b915050610588565b507f3eff5ab34f5d0410425bfdb533f593c9f28a926342be57c40a5343f66beb84e3836040516108459190610e8d565b60405180910390a1829350505050919050565b6060806004600660003373ffffffffffffffffffffffffffffffffffffffff1673ffffffffffffffffffffffffffffffffffffffff168152602001908152602001600020600060035481526020019081526020016000205411610a24576108be8361044f565b9050600081905060006001905060005b6005811015610959577f310000000000000000000000000000000000000000000000000000000000000083828151811061090b5761090a610eaf565b5b602001015160f81c60f81b7effffffffffffffffffffffffffffffffffffffffffffffffffffffffffffff1916146109465760009150610959565b808061095190610f17565b9150506108ce565b5080156109b9576005600660003373ffffffffffffffffffffffffffffffffffffffff1673ffffffffffffffffffffffffffffffffffffffff16815260200190815260200160002060006003548152602001908152602001600020819055505b600660003373ffffffffffffffffffffffffffffffffffffffff1673ffffffffffffffffffffffffffffffffffffffff168152602001908152602001600020600060035481526020019081526020016000206000815480929190610a1c90610f17565b919050555050505b80915050919050565b828054610a3990610ffb565b90600052602060002090601f016020900481019282610a5b5760008555610aa9565b82601f10610a6c5780548555610aa9565b82800160010185558215610aa957600052602060002091601f016020900482015b82811115610aa8578254825591600101919060010190610a8d565b5b509050610ab69190610aba565b5090565b5b80821115610ad3576000816000905550600101610abb565b5090565b6000604051905090565b600080fd5b600080fd5b60007fff0000000000000000000000000000000000000000000000000000000000000082169050919050565b610b2081610aeb565b8114610b2b57600080fd5b50565b600081359050610b3d81610b17565b92915050565b600080fd5b600080fd5b6000601f19601f8301169050919050565b7f4e487b7100000000000000000000000000000000000000000000000000000000600052604160045260246000fd5b610b9682610b4d565b810181811067ffffffffffffffff82111715610bb557610bb4610b5e565b5b80604052505050565b6000610bc8610ad7565b9050610bd48282610b8d565b919050565b600067ffffffffffffffff821115610bf457610bf3610b5e565b5b610bfd82610b4d565b9050602081019050919050565b82818337600083830152505050565b6000610c2c610c2784610bd9565b610bbe565b905082815260208101848484011115610c4857610c47610b48565b5b610c53848285610c0a565b509392505050565b600082601f830112610c7057610c6f610b43565b5b8135610c80848260208601610c19565b91505092915050565b60008060408385031215610ca057610c9f610ae1565b5b6000610cae85828601610b2e565b925050602083013567ffffffffffffffff811115610ccf57610cce610ae6565b5b610cdb85828601610c5b565b9150509250929050565b60008115159050919050565b610cfa81610ce5565b82525050565b6000602082019050610d156000830184610cf1565b92915050565b600067ffffffffffffffff821115610d3657610d35610b5e565b5b610d3f82610b4d565b9050602081019050919050565b6000610d5f610d5a84610d1b565b610bbe565b905082815260208101848484011115610d7b57610d7a610b48565b5b610d86848285610c0a565b509392505050565b600082601f830112610da357610da2610b43565b5b8135610db3848260208601610d4c565b91505092915050565b600060208284031215610dd257610dd1610ae1565b5b600082013567ffffffffffffffff811115610df057610def610ae6565b5b610dfc84828501610d8e565b91505092915050565b600081519050919050565b600082825260208201905092915050565b60005b83811015610e3f578082015181840152602081019050610e24565b83811115610e4e576000848401525b50505050565b6000610e5f82610e05565b610e698185610e10565b9350610e79818560208601610e21565b610e8281610b4d565b840191505092915050565b60006020820190508181036000830152610ea78184610e54565b905092915050565b7f4e487b7100000000000000000000000000000000000000000000000000000000600052603260045260246000fd5b7f4e487b7100000000000000000000000000000000000000000000000000000000600052601160045260246000fd5b6000819050919050565b6000610f2282610f0d565b91507fffffffffffffffffffffffffffffffffffffffffffffffffffffffffffffffff821415610f5557610f54610ede565b5b600182019050919050565b7f4163636573732044656e69656400000000000000000000000000000000000000600082015250565b6000610f96600d83610e10565b9150610fa182610f60565b602082019050919050565b60006020820190508181036000830152610fc581610f89565b9050919050565b7f4e487b7100000000000000000000000000000000000000000000000000000000600052602260045260246000fd5b6000600282049050600182168061101357607f821691505b6020821081141561102757611026610fcc565b5b50919050565b7f4e6f7420612076616c696420776f726400000000000000000000000000000000600082015250565b6000611063601083610e10565b915061106e8261102d565b602082019050919050565b6000602082019050818103600083015261109281611056565b905091905056fea2646970667358221220e243ddd5fc399525eb4c2cbfa4d0441221e56cbf937867a9feff18fbacc1d94764736f6c634300080c0033",
  "immutableReferences": {},
  "source": "// SPDX-License-Identifier: MIT\r\npragma solidity >=0.4.22 <0.9.0;\r\n\r\ncontract WordleContract {\r\n    string word_of_the_day;\r\n    string[] word_list = [\"route\", \"stair\", \"eight\", \"boner\", \"seven\"];\r\n    string[] valid_words = [\"route\", \"stair\", \"eight\", \"boner\", \"seven\"];\r\n    uint day = 0;\r\n    uint attempt = 1;\r\n    address user;\r\n    event send_word(string _word);\r\n    mapping(address => mapping(uint => uint)) attempts_per_day;\r\n    \r\n    constructor(address _user) {\r\n        user = _user;\r\n    }\r\n    function assign() public {\r\n        require(msg.sender == user, \"Access Denied\");\r\n        word_of_the_day = word_list[day];\r\n        day++;\r\n    }\r\n    function is_valid_word(string memory _word) public view returns (bool) {\r\n        for(uint i = 0; i < 5; i++){\r\n            bool check = true;\r\n            bytes memory valid_words_list = bytes(valid_words[i]);\r\n            for(uint j = 0; j < 5; j++){\r\n                if(valid_words_list[i] != bytes(_word)[i]){\r\n                    check = false;\r\n                    break;\r\n                }\r\n            }\r\n            if(check){\r\n                return true;\r\n            }\r\n        }\r\n        return false;\r\n    }\r\n\r\n    function is_letter_in_word(bytes1 _letter, bytes memory _word) public pure returns(bool){\r\n        for(uint i = 0; i < 5; i++){\r\n            if(_word[i] == _letter){\r\n                return true;\r\n            }\r\n        }\r\n        return false;\r\n    }\r\n\r\n    function check_positions(string memory _word) public returns(string memory){\r\n        require(is_valid_word(_word) == true, \"Not a valid word\");\r\n        bytes memory valid = new bytes(5);\r\n        bytes memory word_today = bytes(word_of_the_day);\r\n        bytes memory entered_word = bytes(_word);\r\n        for(uint i = 0; i < 5; i++){\r\n            if(bytes(word_today)[i] == entered_word[i]){\r\n                valid[i] = \"1\";\r\n            }\r\n            else if(word_today[i] != entered_word[i] && is_letter_in_word(entered_word[i], word_today)){\r\n                valid[i] = \"2\";\r\n            }\r\n            else {\r\n                valid[i] = \"0\";\r\n            }\r\n        }\r\n        emit send_word(string(valid));\r\n        return string(valid);\r\n    }\r\n\r\n    function attempts(string memory _word) external returns (string memory){\r\n        string memory output;\r\n        if(attempts_per_day[msg.sender][day] <= 4){\r\n            output = check_positions(_word);\r\n            bytes memory output_bytes = bytes(output);\r\n            bool done = true;\r\n            for(uint i = 0; i < 5; i++){\r\n                if(output_bytes[i] != \"1\"){\r\n                    done = false;\r\n                    break;\r\n                }\r\n            }\r\n            if(done) attempts_per_day[msg.sender][day] = 5;\r\n            attempts_per_day[msg.sender][day]++;\r\n        }\r\n        return output;\r\n    }\r\n}",
  "sourcePath": "F:\\wordle\\backend\\contracts\\WordleContract.sol",
  "compiler": {
    "name": "solc",
    "version": "0.8.12+commit.f00d7308.Emscripten.clang"
  },
  "schemaVersion": "3.4.6",
  "updatedAt": "2022-03-21T15:23:28.164Z",
  "devdoc": {
    "kind": "dev",
    "methods": {},
    "version": 1
  },
  "userdoc": {
    "kind": "user",
    "methods": {},
    "version": 1
  }
}